{
  "transactions": [
    {
      "hash": "0x52e0f7e265935b81e7a5106cf46661bec297d81799c519638eb79fa47edec83f",
      "transactionType": "CALL",
      "contractName": null,
      "contractAddress": "0x078d782b760474a361dda0af3839290b0ef57ad6",
      "function": "approve(address,uint256)",
      "arguments": [
        "0x000000000022D473030F116dDEE9F6B43aC78BA3",
        "115792089237316195423570985008687907853269984665640564039457584007913129639935"
      ],
      "transaction": {
        "from": "0xf39fd6e51aad88f6f4ce6ab8827279cfffb92266",
        "to": "0x078d782b760474a361dda0af3839290b0ef57ad6",
        "gas": "0xdca8",
        "value": "0x0",
        "input": "0x095ea7b3000000000000000000000000000000000022d473030f116ddee9f6b43ac78ba3ffffffffffffffffffffffffffffffffffffffffffffffffffffffffffffffff",
        "nonce": "0xf",
        "chainId": "0x82"
      },
      "additionalContracts": [],
      "isFixedGasLimit": false
    },
    {
      "hash": "0x317e869dd31fcc26aa576b843f2ddd9dba4a2bb579ce9378d3136f5a0ff7cd2d",
      "transactionType": "CALL",
      "contractName": null,
      "contractAddress": "0x000000000022d473030f116ddee9f6b43ac78ba3",
      "function": "approve(address,address,uint160,uint48)",
      "arguments": [
        "0x078D782b760474a361dDA0AF3839290b0EF57AD6",
        "0x4529A01c7A0410167c5740C487A8DE60232617bf",
        "1461501637330902918203684832716283019655932542975",
        "281474976710655"
      ],
      "transaction": {
        "from": "0xf39fd6e51aad88f6f4ce6ab8827279cfffb92266",
        "to": "0x000000000022d473030f116ddee9f6b43ac78ba3",
        "gas": "0x96a0",
        "value": "0x0",
        "input": "0x87517c45000000000000000000000000078d782b760474a361dda0af3839290b0ef57ad60000000000000000000000004529a01c7a0410167c5740c487a8de60232617bf000000000000000000000000ffffffffffffffffffffffffffffffffffffffff0000000000000000000000000000000000000000000000000000ffffffffffff",
        "nonce": "0x10",
        "chainId": "0x82"
      },
      "additionalContracts": [],
      "isFixedGasLimit": false
    },
    {
      "hash": "0x912633845e50bb1b78088c80dabc21f16ec5e1aab85e1566ee3e8e1dbf1d79b8",
      "transactionType": "CALL",
      "contractName": null,
      "contractAddress": "0x00000000000044a361ae3cac094c9d1b14eece97",
      "function": "swap(int256,uint256,bool,(address,address,uint24,int24,address),bytes,address,uint256)",
      "arguments": [
        "-1000000000000000000",
        "0",
        "true",
        "(0x0000000000000000000000000000000000000000, 0x078D782b760474a361dDA0AF3839290b0EF57AD6, 5000, 100, 0x8a62f3271d105a0fAB385CD51c5eC068b12dcac0)",
        "0x",
        "0xf39Fd6e51aad88F6F4ce6aB8827279cffFb92266",
        "1750701653"
      ],
      "transaction": {
        "from": "0xf39fd6e51aad88f6f4ce6ab8827279cfffb92266",
        "to": "0x00000000000044a361ae3cac094c9d1b14eece97",
        "gas": "0x8a9ae",
        "value": "0xde0b6b3a7640000",
        "input": "0x71d9e3dcfffffffffffffffffffffffffffffffffffffffffffffffff21f494c589c0000000000000000000000000000000000000000000000000000000000000000000000000000000000000000000000000000000000000000000000000000000000010000000000000000000000000000000000000000000000000000000000000000000000000000000000000000078d782b760474a361dda0af3839290b0ef57ad6000000000000000000000000000000000000000000000000000000000000138800000000000000000000000000000000000000000000000000000000000000640000000000000000000000008a62f3271d105a0fab385cd51c5ec068b12dcac00000000000000000000000000000000000000000000000000000000000000160000000000000000000000000f39fd6e51aad88f6f4ce6ab8827279cfffb9226600000000000000000000000000000000000000000000000000000000685996550000000000000000000000000000000000000000000000000000000000000000",
        "nonce": "0x11",
        "chainId": "0x82"
      },
      "additionalContracts": [],
      "isFixedGasLimit": false
    }
  ],
  "receipts": [
    {
      "status": "0x1",
      "cumulativeGasUsed": "0x96e1",
      "logs": [
        {
          "address": "0x078d782b760474a361dda0af3839290b0ef57ad6",
          "topics": [
            "0x8c5be1e5ebec7d5bd14f71427d1e84f3dd0314c0f7b2291e5b200ac8c7c3b925",
            "0x000000000000000000000000f39fd6e51aad88f6f4ce6ab8827279cfffb92266",
            "0x000000000000000000000000000000000022d473030f116ddee9f6b43ac78ba3"
          ],
          "data": "0xffffffffffffffffffffffffffffffffffffffffffffffffffffffffffffffff",
          "blockHash": "0x6ca8e05faebd525178198dd9f094e2806ca78679fcda57b98be5a07eebd035b2",
          "blockNumber": "0x130685d",
          "blockTimestamp": "0x6859886b",
          "transactionHash": "0x52e0f7e265935b81e7a5106cf46661bec297d81799c519638eb79fa47edec83f",
          "transactionIndex": "0x0",
          "logIndex": "0x0",
          "removed": false
        }
      ],
      "logsBloom": "0x00000000000000000000000000000000000000000000000000000000000000000000000000000000000000000000000000000000800000000000000000200000000000000000000000004000000000000000200000000800000000000000000000000000000000000000000100000000000000000000000000000000000000000000000000000000000000000000000000000000000000000000000000000000020000000000000000000000000000000000000000000000000000000000000000000000000000200000000000000000000000002000000000000000000000000010000000000000000000000000000000402000000000000000000000000000",
      "type": "0x2",
      "transactionHash": "0x52e0f7e265935b81e7a5106cf46661bec297d81799c519638eb79fa47edec83f",
      "transactionIndex": "0x0",
      "blockHash": "0x6ca8e05faebd525178198dd9f094e2806ca78679fcda57b98be5a07eebd035b2",
      "blockNumber": "0x130685d",
      "gasUsed": "0x96e1",
      "effectiveGasPrice": "0xd2a5a",
      "blobGasPrice": "0x1",
      "from": "0xf39fd6e51aad88f6f4ce6ab8827279cfffb92266",
      "to": "0x078d782b760474a361dda0af3839290b0ef57ad6",
      "contractAddress": null
    },
    {
      "status": "0x1",
      "cumulativeGasUsed": "0x6d0e",
      "logs": [
        {
          "address": "0x000000000022d473030f116ddee9f6b43ac78ba3",
          "topics": [
            "0xda9fa7c1b00402c17d0161b249b1ab8bbec047c5a52207b9c112deffd817036b",
            "0x000000000000000000000000f39fd6e51aad88f6f4ce6ab8827279cfffb92266",
            "0x000000000000000000000000078d782b760474a361dda0af3839290b0ef57ad6",
            "0x0000000000000000000000004529a01c7a0410167c5740c487a8de60232617bf"
          ],
          "data": "0x000000000000000000000000ffffffffffffffffffffffffffffffffffffffff0000000000000000000000000000000000000000000000000000ffffffffffff",
          "blockHash": "0x7a24dd6bb6ddc9c1c6d85aaf8d032ed976da8a8bb0d29ccacccb57828c1c635f",
          "blockNumber": "0x130685e",
          "blockTimestamp": "0x6859886b",
          "transactionHash": "0x317e869dd31fcc26aa576b843f2ddd9dba4a2bb579ce9378d3136f5a0ff7cd2d",
          "transactionIndex": "0x0",
          "logIndex": "0x0",
          "removed": false
        }
      ],
      "logsBloom": "0x00010000000000000000000000000000000000000000000000000000000000000000000000000000000000000000000000000000000000000000000000080000000000000000000000000000000000000000000000000800000000000000000000000000000000000000000100000000000000000000000000000000000000000020000000000000000000000000000000000000080000000000008000000000000000800000000000000000000000000000000000000000000000080000000000000000000008200000000000000000000000002000000040000000000000000000000000000000000000000000000000000000000000200000000000000400",
      "type": "0x2",
      "transactionHash": "0x317e869dd31fcc26aa576b843f2ddd9dba4a2bb579ce9378d3136f5a0ff7cd2d",
      "transactionIndex": "0x0",
      "blockHash": "0x7a24dd6bb6ddc9c1c6d85aaf8d032ed976da8a8bb0d29ccacccb57828c1c635f",
      "blockNumber": "0x130685e",
      "gasUsed": "0x6d0e",
      "effectiveGasPrice": "0xb86ab",
      "blobGasPrice": "0x1",
      "from": "0xf39fd6e51aad88f6f4ce6ab8827279cfffb92266",
      "to": "0x000000000022d473030f116ddee9f6b43ac78ba3",
      "contractAddress": null
    },
    {
      "status": "0x1",
      "cumulativeGasUsed": "0x64590",
      "logs": [
        {
          "address": "0x1f98400000000000000000000000000000000004",
          "topics": [
            "0x40e9cecb9f5f1f1c5b9c97dec2917b7ee92e57ba5563708daca94dd84ad7112f",
            "0xde57f5089316fb8bed6653d7bf5177933d19a91ed273f424533caf37fe0f1cc6",
            "0x00000000000000000000000000000000000044a361ae3cac094c9d1b14eece97"
          ],
          "data": "0xfffffffffffffffffffffffffffffffffffffffffffffffffffff648f9e55c0b0000000000000000000000000000000000000000000000000000003a352943ff00000000000000000000000000000000000000000000000000000001000276a40000000000000000000000000000000000000000000000000000000000000000fffffffffffffffffffffffffffffffffffffffffffffffffffffffffff276180000000000000000000000000000000000000000000000000000000000001388",
          "blockHash": "0x49e0ee3586ff36f302e55e3eaa79d41d169ec8ffef45f139695c27f1a26289e6",
          "blockNumber": "0x130685f",
          "blockTimestamp": "0x6859886b",
          "transactionHash": "0x912633845e50bb1b78088c80dabc21f16ec5e1aab85e1566ee3e8e1dbf1d79b8",
          "transactionIndex": "0x0",
          "logIndex": "0x0",
          "removed": false
        },
        {
          "address": "0x078d782b760474a361dda0af3839290b0ef57ad6",
          "topics": [
            "0xddf252ad1be2c89b69c2b068fc378daa952ba7f163c4a11628f55a4df523b3ef",
            "0x0000000000000000000000001f98400000000000000000000000000000000004",
            "0x000000000000000000000000f39fd6e51aad88f6f4ce6ab8827279cfffb92266"
          ],
          "data": "0x0000000000000000000000000000000000000000000000000000003a352943ff",
          "blockHash": "0x49e0ee3586ff36f302e55e3eaa79d41d169ec8ffef45f139695c27f1a26289e6",
          "blockNumber": "0x130685f",
          "blockTimestamp": "0x6859886b",
          "transactionHash": "0x912633845e50bb1b78088c80dabc21f16ec5e1aab85e1566ee3e8e1dbf1d79b8",
          "transactionIndex": "0x0",
          "logIndex": "0x1",
          "removed": false
        }
      ],
      "logsBloom": "0x20000000000000000000000000000000000000000000000000000000000000000000000000000000000000000000000000000000040000000000000040000000000000000000000000000008000000000400200000000020000000000000100000000000000002000000000100000000000000000000000000000010000040000000010000000000000000000000000000000000000000000000000000000000000000008000800000000000100000000020000000000000000000000000000000000002000000200000000000000000000000002000000000000000000000010000000000000000004000000000000000402000000000000000000000000000",
      "type": "0x2",
      "transactionHash": "0x912633845e50bb1b78088c80dabc21f16ec5e1aab85e1566ee3e8e1dbf1d79b8",
      "transactionIndex": "0x0",
      "blockHash": "0x49e0ee3586ff36f302e55e3eaa79d41d169ec8ffef45f139695c27f1a26289e6",
      "blockNumber": "0x130685f",
      "gasUsed": "0x64590",
      "effectiveGasPrice": "0xa170c",
      "blobGasPrice": "0x1",
      "from": "0xf39fd6e51aad88f6f4ce6ab8827279cfffb92266",
      "to": "0x00000000000044a361ae3cac094c9d1b14eece97",
      "contractAddress": null
    }
  ],
  "libraries": [],
  "pending": [],
  "returns": {},
  "timestamp": 1750809706,
  "chain": 130,
  "commit": "5fdbd12"
}