{
  "transactions": [
    {
      "hash": "0x2a1806faff8804e65093154d12e3dcd4acff59e5832f5fee65fc9513e218dae8",
      "transactionType": "CALL",
      "contractName": null,
      "contractAddress": "0x078d782b760474a361dda0af3839290b0ef57ad6",
      "function": "approve(address,uint256)",
      "arguments": [
        "0x000000000022D473030F116dDEE9F6B43aC78BA3",
        "115792089237316195423570985008687907853269984665640564039457584007913129639935"
      ],
      "transaction": {
        "from": "0xf39fd6e51aad88f6f4ce6ab8827279cfffb92266",
        "to": "0x078d782b760474a361dda0af3839290b0ef57ad6",
        "gas": "0x12ca9",
        "value": "0x0",
        "input": "0x095ea7b3000000000000000000000000000000000022d473030f116ddee9f6b43ac78ba3ffffffffffffffffffffffffffffffffffffffffffffffffffffffffffffffff",
        "nonce": "0xc",
        "chainId": "0x82"
      },
      "additionalContracts": [],
      "isFixedGasLimit": false
    },
    {
      "hash": "0x2503587abae44c9be0814eec6fceacdc9351447ba729f9f93d94860d086363ee",
      "transactionType": "CALL",
      "contractName": null,
      "contractAddress": "0x000000000022d473030f116ddee9f6b43ac78ba3",
      "function": "approve(address,address,uint160,uint48)",
      "arguments": [
        "0x078D782b760474a361dDA0AF3839290b0EF57AD6",
        "0x4529A01c7A0410167c5740C487A8DE60232617bf",
        "1461501637330902918203684832716283019655932542975",
        "281474976710655"
      ],
      "transaction": {
        "from": "0xf39fd6e51aad88f6f4ce6ab8827279cfffb92266",
        "to": "0x000000000022d473030f116ddee9f6b43ac78ba3",
        "gas": "0x1112d",
        "value": "0x0",
        "input": "0x87517c45000000000000000000000000078d782b760474a361dda0af3839290b0ef57ad60000000000000000000000004529a01c7a0410167c5740c487a8de60232617bf000000000000000000000000ffffffffffffffffffffffffffffffffffffffff0000000000000000000000000000000000000000000000000000ffffffffffff",
        "nonce": "0xd",
        "chainId": "0x82"
      },
      "additionalContracts": [],
      "isFixedGasLimit": false
    },
    {
      "hash": "0x80882a9773ec207d204860c1bf5d171d3a515280cfc59a6b59ad51a4bc616c2d",
      "transactionType": "CALL",
      "contractName": null,
      "contractAddress": "0x4529a01c7a0410167c5740c487a8de60232617bf",
      "function": "multicall(bytes[])",
      "arguments": [
        "[0xf70204050000000000000000000000000000000000000000000000000000000000000000000000000000000000000000078d782b760474a361dda0af3839290b0ef57ad6000000000000000000000000000000000000000000000000000000000000138800000000000000000000000000000000000000000000000000000000000000640000000000000000000000008a62f3271d105a0fab385cd51c5ec068b12dcac0000000000000000000000000000000000000000100000000000000000000000000000000000000000000000000000000000000000000000000000000000000e00000000000000000000000000000000000000000000000000000000000000000, 0xdd46508f0000000000000000000000000000000000000000000000000000000000000040000000000000000000000000000000000000000000000000000000006859965e0000000000000000000000000000000000000000000000000000000000000400000000000000000000000000000000000000000000000000000000000000004000000000000000000000000000000000000000000000000000000000000000800000000000000000000000000000000000000000000000000000000000000004020d14140000000000000000000000000000000000000000000000000000000000000000000000000000000000000000000000000000000000000000000000040000000000000000000000000000000000000000000000000000000000000080000000000000000000000000000000000000000000000000000000000000024000000000000000000000000000000000000000000000000000000000000002a0000000000000000000000000000000000000000000000000000000000000030000000000000000000000000000000000000000000000000000000000000001a00000000000000000000000000000000000000000000000000000000000000000000000000000000000000000078d782b760474a361dda0af3839290b0ef57ad6000000000000000000000000000000000000000000000000000000000000138800000000000000000000000000000000000000000000000000000000000000640000000000000000000000008a62f3271d105a0fab385cd51c5ec068b12dcac0fffffffffffffffffffffffffffffffffffffffffffffffffffffffffffedb0800000000000000000000000000000000000000000000000000000000000124f80000000000000000000000000000000000000000000000000000003b9c1ca6cd0000000000000000000000000000000000000000000000008ac7230489e800010000000000000000000000000000000000000000000000000000003a35294401000000000000000000000000f39fd6e51aad88f6f4ce6ab8827279cfffb922660000000000000000000000000000000000000000000000000000000000000180000000000000000000000000000000000000000000000000000000000000000000000000000000000000000000000000000000000000000000000000000000400000000000000000000000000000000000000000000000000000000000000000000000000000000000000000078d782b760474a361dda0af3839290b0ef57ad600000000000000000000000000000000000000000000000000000000000000400000000000000000000000000000000000000000000000000000000000000000000000000000000000000000f39fd6e51aad88f6f4ce6ab8827279cfffb922660000000000000000000000000000000000000000000000000000000000000040000000000000000000000000078d782b760474a361dda0af3839290b0ef57ad6000000000000000000000000f39fd6e51aad88f6f4ce6ab8827279cfffb92266]"
      ],
      "transaction": {
        "from": "0xf39fd6e51aad88f6f4ce6ab8827279cfffb92266",
        "to": "0x4529a01c7a0410167c5740c487a8de60232617bf",
        "gas": "0xa120d",
        "value": "0x8ac7230489e80001",
        "input": "0xac9650d800000000000000000000000000000000000000000000000000000000000000200000000000000000000000000000000000000000000000000000000000000002000000000000000000000000000000000000000000000000000000000000004000000000000000000000000000000000000000000000000000000000000001800000000000000000000000000000000000000000000000000000000000000104f70204050000000000000000000000000000000000000000000000000000000000000000000000000000000000000000078d782b760474a361dda0af3839290b0ef57ad6000000000000000000000000000000000000000000000000000000000000138800000000000000000000000000000000000000000000000000000000000000640000000000000000000000008a62f3271d105a0fab385cd51c5ec068b12dcac0000000000000000000000000000000000000000100000000000000000000000000000000000000000000000000000000000000000000000000000000000000e00000000000000000000000000000000000000000000000000000000000000000000000000000000000000000000000000000000000000000000000000000000000000000000000000000000000000000000000000000000000000464dd46508f0000000000000000000000000000000000000000000000000000000000000040000000000000000000000000000000000000000000000000000000006859965e0000000000000000000000000000000000000000000000000000000000000400000000000000000000000000000000000000000000000000000000000000004000000000000000000000000000000000000000000000000000000000000000800000000000000000000000000000000000000000000000000000000000000004020d14140000000000000000000000000000000000000000000000000000000000000000000000000000000000000000000000000000000000000000000000040000000000000000000000000000000000000000000000000000000000000080000000000000000000000000000000000000000000000000000000000000024000000000000000000000000000000000000000000000000000000000000002a0000000000000000000000000000000000000000000000000000000000000030000000000000000000000000000000000000000000000000000000000000001a00000000000000000000000000000000000000000000000000000000000000000000000000000000000000000078d782b760474a361dda0af3839290b0ef57ad6000000000000000000000000000000000000000000000000000000000000138800000000000000000000000000000000000000000000000000000000000000640000000000000000000000008a62f3271d105a0fab385cd51c5ec068b12dcac0fffffffffffffffffffffffffffffffffffffffffffffffffffffffffffedb0800000000000000000000000000000000000000000000000000000000000124f80000000000000000000000000000000000000000000000000000003b9c1ca6cd0000000000000000000000000000000000000000000000008ac7230489e800010000000000000000000000000000000000000000000000000000003a35294401000000000000000000000000f39fd6e51aad88f6f4ce6ab8827279cfffb922660000000000000000000000000000000000000000000000000000000000000180000000000000000000000000000000000000000000000000000000000000000000000000000000000000000000000000000000000000000000000000000000400000000000000000000000000000000000000000000000000000000000000000000000000000000000000000078d782b760474a361dda0af3839290b0ef57ad600000000000000000000000000000000000000000000000000000000000000400000000000000000000000000000000000000000000000000000000000000000000000000000000000000000f39fd6e51aad88f6f4ce6ab8827279cfffb922660000000000000000000000000000000000000000000000000000000000000040000000000000000000000000078d782b760474a361dda0af3839290b0ef57ad6000000000000000000000000f39fd6e51aad88f6f4ce6ab8827279cfffb9226600000000000000000000000000000000000000000000000000000000",
        "nonce": "0xe",
        "chainId": "0x82"
      },
      "additionalContracts": [],
      "isFixedGasLimit": false
    }
  ],
  "receipts": [
    {
      "status": "0x1",
      "cumulativeGasUsed": "0xd9ad",
      "logs": [
        {
          "address": "0x078d782b760474a361dda0af3839290b0ef57ad6",
          "topics": [
            "0x8c5be1e5ebec7d5bd14f71427d1e84f3dd0314c0f7b2291e5b200ac8c7c3b925",
            "0x000000000000000000000000f39fd6e51aad88f6f4ce6ab8827279cfffb92266",
            "0x000000000000000000000000000000000022d473030f116ddee9f6b43ac78ba3"
          ],
          "data": "0xffffffffffffffffffffffffffffffffffffffffffffffffffffffffffffffff",
          "blockHash": "0xd2c87b76b5c5bcc164e1365ed34b8aca5c7c274f0ded6de69bf4703ec3b8ec79",
          "blockNumber": "0x130685a",
          "blockTimestamp": "0x68598858",
          "transactionHash": "0x2a1806faff8804e65093154d12e3dcd4acff59e5832f5fee65fc9513e218dae8",
          "transactionIndex": "0x0",
          "logIndex": "0x0",
          "removed": false
        }
      ],
      "logsBloom": "0x00000000000000000000000000000000000000000000000000000000000000000000000000000000000000000000000000000000800000000000000000200000000000000000000000004000000000000000200000000800000000000000000000000000000000000000000100000000000000000000000000000000000000000000000000000000000000000000000000000000000000000000000000000000020000000000000000000000000000000000000000000000000000000000000000000000000000200000000000000000000000002000000000000000000000000010000000000000000000000000000000402000000000000000000000000000",
      "type": "0x2",
      "transactionHash": "0x2a1806faff8804e65093154d12e3dcd4acff59e5832f5fee65fc9513e218dae8",
      "transactionIndex": "0x0",
      "blockHash": "0xd2c87b76b5c5bcc164e1365ed34b8aca5c7c274f0ded6de69bf4703ec3b8ec79",
      "blockNumber": "0x130685a",
      "gasUsed": "0xd9ad",
      "effectiveGasPrice": "0x138931",
      "blobGasPrice": "0x1",
      "from": "0xf39fd6e51aad88f6f4ce6ab8827279cfffb92266",
      "to": "0x078d782b760474a361dda0af3839290b0ef57ad6",
      "contractAddress": null
    },
    {
      "status": "0x1",
      "cumulativeGasUsed": "0xbaca",
      "logs": [
        {
          "address": "0x000000000022d473030f116ddee9f6b43ac78ba3",
          "topics": [
            "0xda9fa7c1b00402c17d0161b249b1ab8bbec047c5a52207b9c112deffd817036b",
            "0x000000000000000000000000f39fd6e51aad88f6f4ce6ab8827279cfffb92266",
            "0x000000000000000000000000078d782b760474a361dda0af3839290b0ef57ad6",
            "0x0000000000000000000000004529a01c7a0410167c5740c487a8de60232617bf"
          ],
          "data": "0x000000000000000000000000ffffffffffffffffffffffffffffffffffffffff0000000000000000000000000000000000000000000000000000ffffffffffff",
          "blockHash": "0xd54448a7a5862245b4c56d27fda6de57e8f5dc8528494ca3c323539a3210d09b",
          "blockNumber": "0x130685b",
          "blockTimestamp": "0x68598858",
          "transactionHash": "0x2503587abae44c9be0814eec6fceacdc9351447ba729f9f93d94860d086363ee",
          "transactionIndex": "0x0",
          "logIndex": "0x0",
          "removed": false
        }
      ],
      "logsBloom": "0x00010000000000000000000000000000000000000000000000000000000000000000000000000000000000000000000000000000000000000000000000080000000000000000000000000000000000000000000000000800000000000000000000000000000000000000000100000000000000000000000000000000000000000020000000000000000000000000000000000000080000000000008000000000000000800000000000000000000000000000000000000000000000080000000000000000000008200000000000000000000000002000000040000000000000000000000000000000000000000000000000000000000000200000000000000400",
      "type": "0x2",
      "transactionHash": "0x2503587abae44c9be0814eec6fceacdc9351447ba729f9f93d94860d086363ee",
      "transactionIndex": "0x0",
      "blockHash": "0xd54448a7a5862245b4c56d27fda6de57e8f5dc8528494ca3c323539a3210d09b",
      "blockNumber": "0x130685b",
      "gasUsed": "0xbaca",
      "effectiveGasPrice": "0x111ae4",
      "blobGasPrice": "0x1",
      "from": "0xf39fd6e51aad88f6f4ce6ab8827279cfffb92266",
      "to": "0x000000000022d473030f116ddee9f6b43ac78ba3",
      "contractAddress": null
    },
    {
      "status": "0x1",
      "cumulativeGasUsed": "0x74a77",
      "logs": [
        {
          "address": "0x1f98400000000000000000000000000000000004",
          "topics": [
            "0xdd466e674ea557f56295e2d0218a125ea4b4f0f6f3307b95f85e6110838d6438",
            "0xde57f5089316fb8bed6653d7bf5177933d19a91ed273f424533caf37fe0f1cc6",
            "0x0000000000000000000000000000000000000000000000000000000000000000",
            "0x000000000000000000000000078d782b760474a361dda0af3839290b0ef57ad6"
          ],
          "data": "0x000000000000000000000000000000000000000000000000000000000000138800000000000000000000000000000000000000000000000000000000000000640000000000000000000000008a62f3271d105a0fab385cd51c5ec068b12dcac000000000000000000000000000000000000000010000000000000000000000000000000000000000000000000000000000000000000000000000000000000000",
          "blockHash": "0x03e060ac3e8ddd615f4be75c7bc16c1926dd921811bc2b2dcde363a41079b771",
          "blockNumber": "0x130685c",
          "blockTimestamp": "0x68598858",
          "transactionHash": "0x80882a9773ec207d204860c1bf5d171d3a515280cfc59a6b59ad51a4bc616c2d",
          "transactionIndex": "0x0",
          "logIndex": "0x0",
          "removed": false
        },
        {
          "address": "0x4529a01c7a0410167c5740c487a8de60232617bf",
          "topics": [
            "0xddf252ad1be2c89b69c2b068fc378daa952ba7f163c4a11628f55a4df523b3ef",
            "0x0000000000000000000000000000000000000000000000000000000000000000",
            "0x000000000000000000000000f39fd6e51aad88f6f4ce6ab8827279cfffb92266",
            "0x00000000000000000000000000000000000000000000000000000000000789b4"
          ],
          "data": "0x",
          "blockHash": "0x03e060ac3e8ddd615f4be75c7bc16c1926dd921811bc2b2dcde363a41079b771",
          "blockNumber": "0x130685c",
          "blockTimestamp": "0x68598858",
          "transactionHash": "0x80882a9773ec207d204860c1bf5d171d3a515280cfc59a6b59ad51a4bc616c2d",
          "transactionIndex": "0x0",
          "logIndex": "0x1",
          "removed": false
        },
        {
          "address": "0x1f98400000000000000000000000000000000004",
          "topics": [
            "0xf208f4912782fd25c7f114ca3723a2d5dd6f3bcc3ac8db5af63baa85f711d5ec",
            "0xde57f5089316fb8bed6653d7bf5177933d19a91ed273f424533caf37fe0f1cc6",
            "0x0000000000000000000000004529a01c7a0410167c5740c487a8de60232617bf"
          ],
          "data": "0xfffffffffffffffffffffffffffffffffffffffffffffffffffffffffffedb0800000000000000000000000000000000000000000000000000000000000124f80000000000000000000000000000000000000000000000000000003b9c1ca6cd00000000000000000000000000000000000000000000000000000000000789b4",
          "blockHash": "0x03e060ac3e8ddd615f4be75c7bc16c1926dd921811bc2b2dcde363a41079b771",
          "blockNumber": "0x130685c",
          "blockTimestamp": "0x68598858",
          "transactionHash": "0x80882a9773ec207d204860c1bf5d171d3a515280cfc59a6b59ad51a4bc616c2d",
          "transactionIndex": "0x0",
          "logIndex": "0x2",
          "removed": false
        },
        {
          "address": "0x078d782b760474a361dda0af3839290b0ef57ad6",
          "topics": [
            "0xddf252ad1be2c89b69c2b068fc378daa952ba7f163c4a11628f55a4df523b3ef",
            "0x000000000000000000000000f39fd6e51aad88f6f4ce6ab8827279cfffb92266",
            "0x0000000000000000000000001f98400000000000000000000000000000000004"
          ],
          "data": "0x0000000000000000000000000000000000000000000000000000003a35294400",
          "blockHash": "0x03e060ac3e8ddd615f4be75c7bc16c1926dd921811bc2b2dcde363a41079b771",
          "blockNumber": "0x130685c",
          "blockTimestamp": "0x68598858",
          "transactionHash": "0x80882a9773ec207d204860c1bf5d171d3a515280cfc59a6b59ad51a4bc616c2d",
          "transactionIndex": "0x0",
          "logIndex": "0x3",
          "removed": false
        }
      ],
      "logsBloom": "0x20000000000000000000000000000000000000000000000000000000000000000000000000000000000000000000000000000000000000000800000000000000000000000000000000000008000000000420200000000800000000000000100000000000020002000000000100000880000000000000000000000010000000001000010001000008000000000000000000000001080000000000008000200000000004808000800000000000100000000020000000000000000000000000000000000002000008200000000000000000000000002000000000000000000420000000000000000000000000000000000004402080000000200000000000000000",
      "type": "0x2",
      "transactionHash": "0x80882a9773ec207d204860c1bf5d171d3a515280cfc59a6b59ad51a4bc616c2d",
      "transactionIndex": "0x0",
      "blockHash": "0x03e060ac3e8ddd615f4be75c7bc16c1926dd921811bc2b2dcde363a41079b771",
      "blockNumber": "0x130685c",
      "gasUsed": "0x74a77",
      "effectiveGasPrice": "0xef9cd",
      "blobGasPrice": "0x1",
      "from": "0xf39fd6e51aad88f6f4ce6ab8827279cfffb92266",
      "to": "0x4529a01c7a0410167c5740c487a8de60232617bf",
      "contractAddress": null
    }
  ],
  "libraries": [],
  "pending": [],
  "returns": {},
  "timestamp": 1750811587,
  "chain": 130,
  "commit": "5fdbd12"
}